:100000000C9434000C9449000C9449000C94490061
:100010000C9449000C9449000C9449000C9449003C
:100020000C9449000C9449000C9449000C9449002C
:100030000C9449000C9449000C9449000C9449001C
:100040000C9449000C9449000C9449000C9449000C
:100050000C9449000C9449000C9449000C944900FC
:100060000C9449000C94490011241FBECFEFD8E036
:10007000DEBFCDBF11E0A0E0B1E0E4EAF2E002C0F3
:1000800005900D92A031B107D9F70E944B000C9456
:1000900050010C94000087E60E945B0080E091E034
:1000A0000E946D008CE091E00E946D008FEF93E064
:1000B0000E948000FFCF1092C5008093C40088E1A9
:1000C0008093C10086E08093C20008959091C000A3
:1000D00095FFFCCF8093C60008950F931F93CF9395
:1000E0008C01C0E003C00E946600CF5FF801EC0FF6
:1000F000F11D80818111F7CFCF911F910F9108954C
:100100008F929F92AF92BF92CF92DF92EF92FF9227
:100110000F931F93CF93DF9300D000D0CDB7DEB7FE
:10012000FC01CDB6DEB68AE090E09A83898381E057
:1001300090E09C838B83EA30F105ECF46FC0298159
:100140003A8128173907ACF429813A81A901440F73
:10015000551F220F331F220F331F220F331F240F6F
:10016000351F3A8329832B813C812F5F3F4F3C838E
:100170002B83019602C080E090E08E179F07FCF26F
:100180008B819C81ADB6BEB62DB73EB7281B390B0F
:100190000FB6F8943EBF0FBE2DBF8DB79EB7019628
:1001A0007C0120E030E01FC069817A81CF010E948C
:1001B00028014C0189819A810AE010E0B8010E946F
:1001C0002801C4010E942801605D7F4FD701A20F62
:1001D000B31F6C9389819A81B8010E9428017A83A8
:1001E00069832F5F3F4F8B819C8128173907E4F289
:1001F00000E010E008C0F701E00FF11F80810E94CD
:1002000066000F5F1F4F8B819C81081719079CF3B5
:100210000FB6F894BEBE0FBEADBE04C080E38E0F15
:100220000E9466000FB6F894DEBE0FBECDBE0F90E2
:100230000F900F900F90DF91CF911F910F91FF9032
:10024000EF90DF90CF90BF90AF909F908F900895E8
:1002500097FB072E16F4009407D077FD09D00E9473
:100260003C0107FC05D03EF4909581959F4F089581
:10027000709561957F4F0895AA1BBB1B51E107C084
:10028000AA1FBB1FA617B70710F0A61BB70B881F26
:10029000991F5A95A9F780959095BC01CD010895B5
:0402A000F894FFCF00
:1002A40068656C6C6F20776F726C64000D0A0000D7
:00000001FF
